:020000040800F2
:10000000F028002059020008A53300081932000822
:10001000A1330008B70D000871420008000000007D
:100020000000000000000000000000009D0100082A
:10003000150E000800000000F10100089D3A0008BC
:1000400073020008730200087302000873020008BC
:1000500073020008730200087302000873020008AC
:10006000730200087302000873020008730200089C
:10007000730200087302000873020008730200088C
:10008000730200087302000873020008730200087C
:10009000730200087302000873020008730200086C
:1000A000730200087302000873020008D13B0008C5
:1000B000730200087302000873020008730200084C
:1000C000730200087302000873020008730200083C
:1000D00073020008614200087302000873020008FE
:1000E000730200087302000873020008730200081C
:1000F0007302000873020008000000000000000006
:10010000000000000000000073020008F533000842
:1001100000000000000000007302000873020008E5
:1001200073020008730200087302000873020008DB
:1001300073020008730200087302000873020008CB
:100140007302000800000000000000000000000032
:10015000000000000000000000000000000000009F
:100160000000000000000000730200087302000895
:100170007302000800000000730200080000000085
:100180000000000073020008DFF80CD000F066FBEE
:100190000048004799520008F02800202B4B1968AE
:1001A0000868B0E8F04F80F30988BFF36F8F4FF015
:1001B000000080F3118870470000000006480068C6
:1001C000006880F3088862B661B6BFF34F8FBFF353
:1001D0006F8F00DF00BF00BF08ED00E0DFF80C000C
:1001E000016841F470010160704700BF88ED00E0D4
:1001F000EFF30980BFF36F8F144B1A681EF0100FD6
:1002000008BF20ED108A20E9F04F106008B44FF0CD
:10021000500080F31188BFF34F8FBFF36F8F05F04D
:10022000D9FF4FF0000080F3118808BC19680868F6
:10023000B0E8F04F1EF0100F08BFB0EC108A80F34A
:100240000988BFF36F8F704700BF00BF44000020D4
:10025000EFF30580704700000648804706480047D6
:10026000FEE7FEE7FEE7FEE7FEE7FEE7FEE7FEE766
:10027000FEE7FEE7553B000889010008202A04DB61
:10028000203A21FA02F00021704721FA02F3D0400F
:10029000C2F12002914008431946704740EA010329
:1002A0009B0703D009E008C9121F08C0042AFAD22C
:1002B00003E011F8013B00F8013B521EF9D27047F0
:1002C000D2B201E000F8012B491EFBD27047002298
:1002D000F6E710B513460A4604461946FFF7F0FF45
:1002E000204610BD2DE9FE4F804681EA0300C00F75
:1002F0000C46009021F0004123F00045B8EB0200CD
:10030000A94105D24046214690461C460B4602466E
:1003100023F00040104347D0270DC7F30A00C3F372
:100320000A510290401A019040286BDAC3F313007F
:1003300040F4801B0098924620B10023D2EB030AC0
:1003400063EB0B0B01985946C0F14002504600F098
:1003500077F906460D4650465946019A00F07FF956
:1003600010EB08006141002487EA115284EAE77328
:100370001A4340D0009A62B3019A012A4FEA075209
:1003800015DC001B61EB02014FF0004202EA07524C
:10039000CDE90042001C41F5801132462B4600F0A9
:1003A000CEF903B0BDE8F08F40462146F9E7001BC7
:1003B00061EB0201001C41F5801300185B4120181D
:1003C000A2F5001747EB030140EAD570B6196D415D
:1003D00011E06D084FEA360645EAC0754FEA07524C
:1003E000001B61EB0201001C41F5801149084FEA36
:1003F00030000019514132462B4603B0BDE8F04FA2
:1004000000F08EB90098012240000023D0EB0202D8
:1004100063EBE073009821464FEAE074B8EB00000C
:1004200061EB0401E9E783F000435BE781F0004101
:1004300058E72DE9FE4F81EA030404F0004421F05F
:10044000004100944FF0000B23F0004350EA0104F8
:100450005ED052EA03045BD0C3F30A54C1F30A55D9
:100460002C44A4F2F3340194A0FB0254C1F3130111
:1004700041F48011C3F3130343F4801301FB0244DE
:1004800000FB034E840A970A44EA815447EA8357E3
:10049000A4FB076802958D0A05FB07854FEA932C9C
:1004A00004FB0C542705029D4FEA065847EA16370D
:1004B000B5EB08056EEB070C870E920E47EA811725
:1004C00042EA8312A7FB0201B6EB0B0164EB0004C6
:1004D0002B0D43EA0C335E1844EB1C50DA465146B0
:1004E000E7FB0201C5F313044FEA0B3343EA14534D
:1004F0004FEA0432019C43EA0603A4F10C0402947F
:10050000009CCDE900B400F01AF903B0BDE8F08F0B
:1005100000200146F9E72DE9F04D81EA030404F0DB
:10052000004B21F0004514464FF0000A23F0004133
:1005300050EA050220D054EA01021DD0C5F30A5743
:100540000246C5F31303C1F31300C1F30A5640F486
:10055000801543F48013A7EB0608101BD64608F25B
:10056000FD3873EB050002D308F1010801E0921891
:100570005B41B8F1000F03DA00200146BDE8F08DC1
:1005800000204FF48011064684460EE0171B73EBE3
:10059000050705D3121B63EB050306434CEA010C68
:1005A00049084FEA300092185B4150EA0107EDD14B
:1005B00052EA030012D082EA040083EA05010843EC
:1005C00005D0101BAB4106D20122002306E0002219
:1005D0004FF0004302E06FF0010253101AEB0600E7
:1005E0004CEB085110EB0A0041EB0B01BDE8F04D5C
:1005F00000F096B80EB540F2334102910021CDE9EA
:1006000000110A460B4600F09AF803B000BDC1F392
:100610000A5210B5C1F3130140F2FF3341F48011C7
:100620009A4201DA002010BD40F233439A42A2F20E
:10063000334203DC5242FFF721FE10BD904010BD53
:10064000202A04DB203A00FA02F100207047914092
:10065000C2F1200320FA03F3194390407047202A87
:1006600006DBCB17203A41FA02F043EAE07306E0DA
:1006700041FA02F3D040C2F12002914008431946EA
:10068000704700000FB4002300B589B00CA9009199
:100690000B996FF00042CB601E4B06931E4B0793E5
:1006A0000423CDE901321D4A089202466B46002020
:1006B00000F080F909B05DF814FB70B586B006460D
:1006C0004FF0FF300091CDE90101002015460C46A6
:1006D00004903246694604A8FFF7D4FF0246049806
:1006E000211825B108B1084600E02046286004988A
:1006F00000280DD0002A02DD0098884208D0081B8F
:100700000094CDE901043246694604A8FFF7BAFF18
:1007100006B070BDED0B00080B0C00088108000846
:1007200010B5141E73F1000408DA401C41F10001F9
:1007300092185B411A4301D120F0010010BD2DE950
:10074000F04D92469B4611B1B1FA81F202E0B0FA47
:1007500080F220329046FFF773FF04460F4640EACE
:100760000A0041EA0B0153465A46084313D011468A
:1007700053EA010019D0C8F140025046FFF77EFD50
:1007800005460E46504659464246FFF759FF084374
:1007900005D0012004E020463946BDE8F08D002058
:1007A000054346EAE0762C4337430A986305E40A9A
:1007B000A0EB08000022FD0A44EA47540A3002D5A3
:1007C00000200146E9E7010510196941DDE9084506
:1007D00000196941BDE8F04DA2E770B521F0004372
:1007E00003430CD0C1F30A550024D5EB040564EB98
:1007F0000403D617AD1AB34102DB0020014670BDD9
:10080000201841EB025170BD0EB5C10F80EAE070B7
:100810000844CA07002140F233438DE80E000A461F
:100820000B46FFF78CFF03B000BD000030B5041E7F
:1008300071F1000404DB4FF00044404264EB01011D
:10084000141E73F1000405DB1C464FF000435242B6
:1008500063EB0403994208BF904230BD064C074D3C
:1008600006E0E06840F0010394E807009847103480
:10087000AC42F6D3FFF78CFC107100083071000811
:10088000C0B24FF4F05100F023BA00002DE9FF4F41
:10089000087883B09946FF2805D0491C2D2804D03C
:1008A0000024002008E000200BE00124F9E700EB21
:1008B000800003EB4000491C0B78FF2BF7D104B1FB
:1008C000404200230293147819461D462D2C01D076
:1008D0002B2C04D1521C2D2C13D000240294AA4698
:1008E0001478FF2C0FD00A25A3FB057801FB0581A6
:1008F0004FF0000C03FB0C11521CE3194AEB0101F1
:10090000EEE70124EAE7814453EA010002D019F539
:10091000C87F06DA03980021C0E9001107B0BDE8DE
:10092000F08F0025AE4E2F46DFF8B882184600F053
:10093000E3F9CDE90001B9F1000002DAC9F10004E0
:1009400000E004460023A74A1AEB030B42EB045ACB
:1009500012E0E00707D02A46334638464146FFF703
:1009600068FD074688462A46334610461946FFF773
:1009700060FD05460E466410002CEAD1DDE9000159
:10098000B9F1000F5A46534606DAFFF7C4FD3A465E
:100990004346FFF7C0FD05E0FFF74BFD3A464346EF
:1009A000FFF747FD029A0AB181F00041039AC2E9BC
:1009B0000001B3E72DE9FF4F1F468DB0D7E901468F
:1009C0004FF0FF382E2045464FF000090B90B969D3
:1009D0006D1C0E988847396A824688470028F6D1F0
:1009E000BAF1FF3F0AD024F4D064002E11DDBAF131
:1009F0002B0F08D0BAF12D0F0BD102E0404611B0F9
:100A00008DE744F48064B9696D1C0E98884782466E
:100A1000761E6946600501D52D2000E02B208DF85B
:100A2000000001F1010B0DF1200809E0B9696D1C0E
:100A30000E98884782460F9844F40074761E05602D
:100A4000002E02DDBAF1300FF0D00B998A453ED16D
:100A500044F0800406E00F99681CA9F1010944F4F0
:100A600000740860B9696D1C761E0E98884782462E
:100A70003028F0D02BE00B998A4505D1200603D40D
:100A800044F08004761E18E0504604F0F1FB08B3F1
:100A90000DF11301761E44F400748B4508D2AAF1BF
:100AA00030000BF8010B200607D5A9F1010003E087
:100AB000200602D409F101008146A00502D50F9954
:100AC000681C0860B9696D1C0E9888478246002E24
:100AD000D1DC53E0002E51DDBAF1650F02D0BAF13E
:100AE000450F4BD1A00549D5B9696D1C24F440745C
:100AF000761E0E9888478246002E0CDD2B2804D0E7
:100B0000BAF12D0F07D144F48074B9696D1C0E98A9
:100B100088478246761EE00501D52D2100E02B2175
:100B200008F8011BCDF82C8021E00DF12901761E7B
:100B300044F4007488450CD2AAF1300010F0FF0094
:100B400088F8000002D10B99884509D908F10108FD
:100B500006E0E00501D5244801E042F20F7081462D
:100B6000B9696D1C0E98884782460F980560002E63
:100B700004DD504604F07CFB0028D6D1F9690E98BC
:100B80008847FF208BF8000088F8000000200690BE
:100B900007904B466A4608A906A8FFF777FEA0050E
:100BA00002D46FF001002AE714F0240F0AD0E00706
:100BB00014D1DDE906123868031D3B600068C0E906
:100BC00000120BE0DDE9060100F0A2F80146E007A3
:100BD00004D13868021D3A600068016028460EE7BB
:100BE000000014400000F03FF1D8FFFF426842B11E
:100BF000016811F8013B23B1521EC0E900121846EA
:100C000070470121C160881E704742685AB1C368AD
:100C1000016843B983688B4205D0491E521CC0E964
:100C20000012002070474FF0FF3070472DE9F04D63
:100C300000231A461B1A8A4103DB00200146BDE847
:100C4000F08DC1F30A52C1F3130141F480154FF046
:100C5000000BD10702D100186D41521E0027044637
:100C600040F2FF11384601EB620A3E4680460246DA
:100C700000204FF48011FFF701FBC2197141BB182E
:100C800046EB0100B4EB030C75EB000C04D3E41A43
:100C900065EB000517460E46241908F101006D4169
:100CA00080463428E3DDF91946EB0600091BA8410C
:100CB00003D24FF0FF32134601E0002213461BEB34
:100CC000070046EB0A51BDE8F04DFFF729BD0000D3
:100CD0007F2801D9002208E0064A02EB5002C00733
:100CE000127800D1120902F00F0201209040084052
:100CF00070470000987000080EB540F2334202922F
:100D00000022CDE900221346FFF719FD03B000BD14
:100D100001F0004330B421F0004150EA010206D056
:100D20000A0DA2F56072C1F31301002A02DC30BC87
:100D300000207047440F44EAC104C100E01830BCF1
:100D400000EBC250AFF300800029A8BF7047401CE1
:100D5000490008BF20F00100704710B4B0FA80FCD1
:100D600000FA0CF050EA010404BF10BC704749B10E
:100D7000CCF1200421FA04F411FA0CF118BF01217E
:100D800021430843A3EB0C01CB1D4FEA00614FEA5E
:100D9000102042BF002010BC704700EBC35010442D
:100DA0000029A4BF10BC7047401C490008BF20F0B8
:100DB000010010BC704700BFFEE70000F8B5044614
:100DC0000D4616460F2040EA051046F0F001084097
:100DD000C0B28DF800008DF8014000208DF80200AF
:100DE00000224FF40071094800F0A4FA0123032205
:100DF0006946074801F0E4FD30B901225102034879
:100E000000F098FA0120F8BD0020FCE7000400483B
:100E1000A80000207047704700200749C8610748B4
:100E2000006940F00400054908610846006940F087
:100E30004000086170470000A0040020002002402C
:100E40000021074AD1610749096941F00201054AB9
:100E5000116111464861096941F040011161704713
:100E6000A0040020002002400022054BDA61054A60
:100E7000126942F00102034B1A61018070470000C1
:100E8000A00400200020024000200F49C96801F0A2
:100E90001001102907D10D49C96941F002010B4A1F
:100EA000D16140F010000849C96801F0040104292B
:100EB00007D10649C96941F00101044AD16140F0F6
:100EC00004000149C860704700200240A0040020CF
:100ED00070B5044600F034FA054609E0601C38B1EC
:100EE00024B100F02DFA401BA04201D9032070BDAF
:100EF0000F48C06800F001000028EFD10C48C0681E
:100F000000F02000202801D10949C8600848C068C5
:100F100000F01000102805D00548C06800F004005B
:100F2000042803D1FFF7B0FF0120E0E70020DEE74F
:100F30000020024001460868006820F00E000A68A0
:100F400010600868006820F001000A68106091F8DD
:100F5000402001209040CA6B5060012081F82100A0
:100F600000BF002081F8200000BF704770B5044624
:100F7000002594F82100022803D00420A063012555
:100F80001EE02068006820F00E00216808602068DC
:100F9000006820F001002168086094F840100120EA
:100FA0008840E16B4860012084F8210000BF0020E8
:100FB00084F8200000BF606B10B12046616B884749
:100FC000284670BD2DE9F04104460E460127002554
:100FD00000BF2648007E012802D10220BDE8F08132
:100FE00001202249087600BF2068012812D14CF266
:100FF0005030FFF76DFF88BBFFF70EFF4CF250300B
:10100000FFF766FF07461A48006920F004001849F8
:10101000086123E04CF25030FFF75AFFF0B94FF06F
:10102000FF303060656812E02846FFF709FF4CF298
:101030005030FFF74DFF07460D48006920F00200D1
:101040000B4908610FB1356007E005F50065D4E98B
:10105000011001EBC020A842E6D800BF00BF00206D
:101060000249087600BF3846B8E70000A004002017
:10107000002002400348006940F0800001490861F7
:1010800000207047002002402DE9FE4F05468B46A8
:1010900017469846012600240020029000BF2448ED
:1010A000007E012802D10220BDE8FE8F01202049E8
:1010B000087600BF4CF25030FFF70AFF064686BBA9
:1010C000012D02D10120029006E0022D02D1022062
:1010D000029001E00420029000241EE02201B946A3
:1010E000C24648465146FFF7C9F880B20190022037
:1010F00000FB04B000900199FFF7B6FE4CF25030AF
:10110000FFF7E6FE06460B48006920F0010009499A
:10111000086106B104E0601CC4B202988442DDDBC1
:1011200000BF00BF00200249087600BF3046BBE781
:10113000A00400200020024000200849096901F0B5
:10114000800151B10649054A516006495160114676
:10115000096901F0800101B10120704700200240BF
:1011600023016745AB89EFCD78B503460022002403
:101170000020CBE0012696400D6805EA0604002C0D
:1011800072D04D68022D02D04D68122D13D1D608B1
:1011900003F1200555F826005507EE0E0F25B54042
:1011A000A8435607F60E0D69B5402843D60803F14B
:1011B000200545F82600186856000325B540A843C9
:1011C0000D7905F003055600B540284318604D68B9
:1011D000012D08D04D68022D05D04D68112D02D08B
:1011E0004D68122D13D1986856000325B540A843C9
:1011F0005600CD68B5402843986058680125954051
:10120000A8430D79C5F30015954028435860D86868
:1012100056000325B540A84356008D68B5402843C5
:10122000D8604D6805F08055B5F1805F6DD100BF85
:10123000394DAD6945F00105374EB5613546AD69AB
:1012400005F00105009500BF00BF4FEAB6359608CE
:1012500055F8260095072E0F0F25B540A843B3F18A
:10126000904F02D1002515E04FE02C4DAB4201D14B
:1012700001250FE02A4DAB4201D102250AE0294D9C
:10128000AB4201D1032505E0274DAB4201D1042536
:1012900000E005259607360FB5402843234D9608F4
:1012A00045F82600224D2868A0434D6805F4803596
:1012B000B5F5803F00D120431D4D28602D1D2868C5
:1012C000A0434D6805F40035B5F5003F00D120433B
:1012D000174D2D1D28602D1D2868A0434D6805F46D
:1012E0008015B5F5801F00D12043114D08352860C9
:1012F0002D1D2868A0434D6805F40015B5F5001FA5
:1013000000D120430A4D0C352860521C0D68D54091
:10131000002D7FF42FAF78BD00100240000400487C
:1013200000080048000C0048001000480800014078
:10133000000401400AB1816100E081627047000051
:10134000014800687047000034000020034800682E
:1013500003490978084401490860704734000020B7
:101360003C00002010B50848006840F01000064915
:101370000860032000F0BEF8002000F007F800F03D
:1013800049F8002010BD00000020024070B588B070
:10139000044600250026002221461B2000F06BF8A1
:1013A0001B2000F05BF800BF1648C06940F40070D5
:1013B0001449C8610846C06900F40070019000BF7C
:1013C00000BF02A903A800F03BFB00F061FB450051
:1013D0000D48B5FBF0F0461E0C480D49086040F280
:1013E000E7310B48C160466000210161816001F076
:1013F00046FC20B9064801F05DFC08B070BD012034
:10140000FBE700000010024040420F00009C00403B
:101410004004002008B500BF0F48806940F001007B
:101420000D4988610846806900F00100009000BF06
:1014300000BF00BF0846C06940F08050C861084640
:10144000C06900F08050009000BF00BF00220F2153
:10145000901E00F010F808BD0010024000BF00F020
:101460001F02012191404209920002F1E022C2F8DC
:10147000001100BF70472DE9F05F80460D4616460B
:10148000002701F09BFF074639462A46334601F004
:101490000700C0F1070ABAF1040F02D94FF0040A9D
:1014A00001E0C0F1070AD14600F1040ABAF1070FC2
:1014B00002D24FF0000A01E0A0F1030AD4464FF037
:1014C000010A0AFA09FAAAF1010A0AEA020A0AFA60
:1014D0000CFA4FF0010B0BFA0CFBABF1010B0BEA12
:1014E000030B4AEA0B042146404601F06FFFBDE8BA
:1014F000F09F000000BF00F00702064B19684FF68E
:10150000FF031940044B0B4343EA0221014B1960CE
:1015100000BF70470CED00E00000FA05F8B5044686
:1015200000260025206800F48030B0F5803F75D19A
:1015300000279648C06900F0805070B900BF9348FA
:10154000C06940F080509149C8610846C06900F008
:101550008050009000BF00BF01278D48006800F454
:101560008070B0B98A48006840F48070884908608B
:10157000FFF7E6FE064606E0FFF7E2FE801B642862
:1015800001D90320F8BD8248006800F4807000286B
:10159000F2D07E48006A00F44075002D6CD0A0881F
:1015A00000F44070A84267D07848006A20F4407583
:1015B0000120010491FAA1F1B1FA81F1754A02EB1F
:1015C0008101C1F8000400204FF4803191FAA1F1AB
:1015D000B1FA81F102EB8101C1F800046B480562A8
:1015E00005F00100B8B3FFF7ABFE064608E0FFF7D1
:1015F000A7FE801B41F28831884201D90320C1E750
:101600004020022191FAA1F1B1FA81F108430121B0
:10161000B1EB601F03D15D4800681FE03CE0402053
:10162000022191FAA1F1B1FA81F108430221B1EB53
:10163000601F02D15548006A10E04020022191FA53
:10164000A1F1B1FA81F108430421B1EB601F03D18C
:101650004E48406802E00FE04C48406A40210222B8
:1016600092FAA2F2B2FA82F2114301F01F020121B2
:10167000914008400028BAD04448006A20F44070E5
:101680006168084341490862012F04D10846C069D6
:1016900020F08050C86100BF207800F0010038B110
:1016A0003A48006B20F00300A168084337490863FB
:1016B000207800F00200022807D13448006B20F4A3
:1016C0004030E168084331490863207800F00400A5
:1016D000042807D12D48006B20F4402021690843DD
:1016E0002A490863207800F02000202807D12748E5
:1016F000006B20F0100061690843244908632068EA
:1017000000F40030B0F5003F07D12048406820F4D5
:101710008000A16A08431D494860207800F040001D
:10172000402807D11948006B20F02000A169084328
:1017300016490863207800F08000802807D11348FC
:10174000406820F44040E16908431049486020881F
:1017500000F40060B0F5006F07D10C48406820F03D
:101760007840216A084309494860208800F4806075
:10177000B0F5806F07D10548006B20F04000616A2A
:101780000843024908630020FCE600000010024004
:10179000007000400000424270B504460D4600262D
:1017A0000CB9012070BDA248006800F00700A842F3
:1017B0000ED29F48006820F0070028439C4908602B
:1017C0000846006800F00700A84201D00120E9E7C0
:1017D000207800F00200022807D19648406820F0E7
:1017E000F000A168084393494860207800F00100A8
:1017F00000287CD0606801283BD12020010391FAA9
:10180000A1F1B1FA81F108430121B1EB601F02D1CE
:10181000884800681DE02020010391FAA1F1B1FA87
:1018200081F108430221B1EB601F02D18148006AB7
:101830000FE02020010391FAA1F1B1FA81F10843F0
:101840000421B1EB601F02D17A48406801E0794879
:10185000406A20210A0392FAA2F2B2FA82F21143FC
:1018600001F01F0201219140084000287CD1012095
:1018700098E7606802283BD12020010591FAA1F188
:10188000B1FA81F108430121B1EB601F02D169482F
:1018900000681DE02020010591FAA1F1B1FA81F163
:1018A00008430221B1EB601F02D16248006A0FE0D9
:1018B0002020010591FAA1F1B1FA81F10843042138
:1018C000B1EB601F02D15B48406801E05948406AB3
:1018D00020210A0592FAA2F2B2FA82F2114301F033
:1018E0001F02012191400840E8BB01205AE758E05F
:1018F0002020022191FAA1F1B1FA81F108430121DE
:10190000B1EB601F02D14B4800681DE0202002218E
:1019100091FAA1F1B1FA81F108430221B1EB601F04
:1019200002D14448006A0FE02020022191FAA1F17F
:10193000B1FA81F108430421B1EB601F02D13D48A7
:10194000406801E03B48406A2021022292FAA2F25C
:10195000B2FA82F2114301F01F02012191400840C6
:1019600008B901201EE7FFE73248406820F0030075
:10197000616808432F494860FFF7E2FC064608E02B
:10198000FFF7DEFC801B41F28831884201D9032039
:1019900008E72848406800F00C006168B0EB810F50
:1019A000EED12348006800F00700A8420ED9204875
:1019B000006820F0070028431D49086008460068B9
:1019C00000F00700A84201D00120EBE6207800F0EB
:1019D0000400042807D11748406820F4E060E1685B
:1019E000084314494860207800F00800082808D10E
:1019F0001048406820F46050216940EAC1000D4958
:101A0000486000F071F80B49496801F0F001F022DC
:101A100092FAA2F2B2FA82F2D140074A515CC8406F
:101A2000064908600020FFF7B1FC0020BAE600007C
:101A30000020024000100240F06F0008400000202B
:101A40000F2202600D4A526802F0030242600B4A04
:101A5000526802F0F0028260084A526802F4E062C2
:101A6000C260064A526802F46052D2080261044A17
:101A7000126802F007020A6070470000001002407E
:101A8000002002400148006870470000400000202C
:101A900000B5FFF7F7FF0749496801F4E0614FF42B
:101AA000E06292FAA2F2B2FA82F2D140024A515CAA
:101AB000C84000BD001002400070000800B5FFF7EC
:101AC000E1FF0749496801F460514FF4605292FA0E
:101AD000A2F2B2FA82F2D140024A515CC84000BD83
:101AE000001002400070000870B5002100240022A0
:101AF000002300201A4D696801F00C0565B3042D20
:101B000002D0082D27D101E0164827E001F4701516
:101B10004FF4701696FAA6F6B6FA86F6F540124E0F
:101B2000735D0F4DED6A05F00F050F2696FAA6F6C8
:101B3000B6FA86F6F5400D4E745D01F480352DB190
:101B4000084DB5FBF4F505FB03F202E0084D03FB7D
:101B500005F2104602E000BF024800BF00BF70BDA2
:101B60000010024000127A00D06F0008E06F0008F9
:101B700000093D00F8B504460CB90120F8BD2078F5
:101B800000F0010000287BD0FA48406800F00C000B
:101B900004280CD0F748406800F00C00082845D114
:101BA000F448406800F48030B0F5803F3ED12020FA
:101BB000010391FAA1F1B1FA81F108430121B1EBDE
:101BC000601F02D1EB4800681DE02020010391FA5C
:101BD000A1F1B1FA81F108430221B1EB601F02D1FA
:101BE000E448006A0FE02020010391FAA1F1B1FA64
:101BF00081F108430421B1EB601F02D1DD48406848
:101C000001E0DC48406A20210A0392FAA2F2B2FA0B
:101C100082F2114301F01F02012191400840002887
:101C2000B1D0606800282BD10120A7E700BF606811
:101C3000B0F5803F06D1CF48006840F48030CD49F0
:101C4000086029E0606858B9CA48006820F480300C
:101C5000C84908600846006820F4802008601BE03E
:101C60006068B0F5A02F0CD1C248006840F4802015
:101C7000C04908600846006840F4803008600BE006
:101C8000A1E0BC48006820F48030BA4908600846EA
:101C9000006820F48020086000BFB648C06A20F0C9
:101CA0000F00A1680843B349C8626068A0B3FFF79A
:101CB00047FB054606E0FFF743FB401B642801D9BC
:101CC00003205BE72020010391FAA1F1B1FA81F131
:101CD00008430121B1EB601F02D1A64800681EE055
:101CE0002020010391FAA1F1B1FA81F10843022108
:101CF000B1EB601F02D19F48006A10E02020010371
:101D000091FAA1F1B1FA81F108430421B1EB601F0E
:101D100003D19848406802E010E09648406A2021CC
:101D20000A0392FAA2F2B2FA82F2114301F01F0200
:101D30000121914008400028BDD044E0FFF700FB9E
:101D4000054606E0FFF7FCFA401B642801D9032092
:101D500014E72020010391FAA1F1B1FA81F10843BF
:101D60000121B1EB601F02D1824800681DE02020F4
:101D7000010391FAA1F1B1FA81F108430221B1EB1B
:101D8000601F02D17B48006A0FE02020010391FA16
:101D9000A1F1B1FA81F108430421B1EB601F02D136
:101DA0007448406801E07348406A20210A0392FAAF
:101DB000A2F2B2FA82F2114301F01F020121914016
:101DC00008400028BED1207800F0020002285CD133
:101DD0006848406800F00C0050B16648406800F068
:101DE0000C00082852D16348406800F48030E8BBFA
:101DF0002020022191FAA1F1B1FA81F108430121D9
:101E0000B1EB601F02D15B4800681DE02020022179
:101E100091FAA1F1B1FA81F108430221B1EB601FFF
:101E200002D15448006A0FE02020022191FAA1F16A
:101E3000B1FA81F108430421B1EB601F02D14D4892
:101E4000406801E04B48406A2021022292FAA2F247
:101E5000B2FA82F2114301F01F02012191400840C1
:101E600028B12069012802D0012087E60EE0414810
:101E7000006820F0F800F82292FAA2F2B2FA82F298
:101E80006169914008433B490860B1E0206970B343
:101E9000012191FAA1F0B0FA80F0374A42F82010FF
:101EA000FFF74EFA054606E0FFF74AFA401B022804
:101EB00001D9032062E62020022191FAA1F1B1FAB2
:101EC00081F108430121B1EB601F02D1294800686C
:101ED0001EE02020022191FAA1F1B1FA81F108431C
:101EE0000221B1EB601F03D12248006A10E02CE010
:101EF0002020022191FAA1F1B1FA81F108430421D5
:101F0000B1EB601F02D11B48406801E01948406AEC
:101F10002021022292FAA2F2B2FA82F2114301F0D7
:101F20001F020121914008400028BDD011480068DF
:101F300020F0F800F82292FAA2F2B2FA82F2616975
:101F4000914008430B49086052E00020012191FABA
:101F5000A1F1B1FA81F1084A42F82100FFF7F0F946
:101F600005460BE0FFF7ECF9401B022806D90320D9
:101F700004E600000010024000004242202002213E
:101F800091FAA1F1B1FA81F108430121B1EB601F8F
:101F900002D1FB4800681DE02020022191FAA1F146
:101FA000B1FA81F108430221B1EB601F02D1F4487C
:101FB000006A0FE02020022191FAA1F1B1FA81F12B
:101FC00008430421B1EB601F02D1ED48406801E0F5
:101FD000EB48406A2021022292FAA2F2B2FA82F27F
:101FE000114301F01F020121914008400028B9D19E
:101FF000207800F00800082851D1A06980B30120A2
:1020000090FAA0F1B1FA81F1DE4A02EB8101C1F848
:102010008004FFF795F9054606E0FFF791F9401BAC
:10202000022801D90320A9E56020022191FAA1F13B
:10203000B1FA81F108430121B1EB601F02D1D04810
:1020400000681EE06020022191FAA1F1B1FA81F14D
:1020500008430221B1EB601F03D1C948006A10E0B8
:102060001EE06020022191FAA1F1B1FA81F108434A
:102070000421B1EB601F02D1C148406801E0C048B3
:10208000406A6021022292FAA2F2B2FA82F211436D
:1020900001F01F020121914008400028BDD04FE00F
:1020A0000020012191FAA1F1B1FA81F1B54A02EBC8
:1020B0008101C1F88004FFF743F9054606E0FFF708
:1020C0003FF9401B022801D9032057E56020022177
:1020D00091FAA1F1B1FA81F108430121B1EB601F3E
:1020E00002D1A74800681DE06020022191FAA1F109
:1020F000B1FA81F108430221B1EB601F02D1A0487F
:10210000006A0FE06020022191FAA1F1B1FA81F199
:1021100008430421B1EB601F02D19948406801E0F7
:102120009748406A6021022292FAA2F2B2FA82F241
:10213000114301F01F020121914008400028BED147
:10214000207800F00400042873D100268C48C06970
:1021500000F0805070B900BF8948C06940F08050DD
:102160008749C8610846C06900F08050009000BFF0
:1021700000BF01268448006800F48070B0B982482E
:10218000006840F4807080490860FFF7D9F8054680
:1021900006E0FFF7D5F8401B642801D90320EDE4E1
:1021A0007948006800F480700028F2D000BFE06831
:1021B000012806D17248006A40F0010070490862A7
:1021C00027E0E06858B96E48006A20F001006C49C9
:1021D00008620846006A20F00400086219E0E0681E
:1021E00005280BD16648006A40F004006449086283
:1021F0000846006A40F0010008620AE06048006A90
:1022000020F001005E4908620846006A20F00400E0
:10221000086200BFE068B8B3FFF792F8054609E02E
:10222000FFF78EF8401B41F28831884202D9032023
:10223000A4E48BE04020022191FAA1F1B1FA81F1EE
:1022400008430121B1EB601F02D14D4800681EE038
:102250004020022191FAA1F1B1FA81F10843022153
:10226000B1EB601F02D14648006A10E04020022115
:1022700091FAA1F1B1FA81F108430421B1EB601F99
:1022800003D13F48406802E010E03D48406A4021E9
:10229000022292FAA2F2B2FA82F2114301F01F0274
:1022A0000121914008400028BAD046E0FFF748F8E5
:1022B000054608E0FFF744F8401B41F288318842A8
:1022C00001D903205AE44020022191FAA1F1B1FA88
:1022D00081F108430121B1EB601F02D12848006859
:1022E0001DE04020022191FAA1F1B1FA81F10843E9
:1022F0000221B1EB601F02D12148006A0FE04020AB
:10230000022191FAA1F1B1FA81F108430421B1EB64
:10231000601F02D11A48406801E01948406A402114
:10232000022292FAA2F2B2FA82F2114301F01F02E3
:102330000121914008400028BCD1012E05D1104850
:10234000C06920F080500E49C86100BFE0690028D4
:1023500074D00B48406800F00C0008286FD0E0698A
:1023600002286DD100204FF0807191FAA1F1B1FAED
:1023700081F1044A42F82100FEF7E2FF05460CE035
:10238000001002400000424200700040FEF7D8FFFB
:10239000401B022801D9032047E42020010591FABF
:1023A000A1F1B1FA81F108430121B1EB601F02D123
:1023B0006F4800681DE02020010591FAA1F1B1FAF3
:1023C00081F108430221B1EB601F02D16848006A25
:1023D0000FE02020010591FAA1F1B1FA81F1084343
:1023E0000421B1EB601F02D16148406801E0604800
:1023F000406A20210A0592FAA2F2B2FA82F211434F
:1024000001F01F020121914008400028BED1D4E90B
:10241000081008435649496821F474110843544987
:1024200048600121080690FAA0F0B0FA80F0514A05
:1024300042F82010FEF784FF054609E095E092E09F
:1024400041E0FEF77DFF401B022801D9032038E45C
:102450002020010591FAA1F1B1FA81F1084301218F
:10246000B1EB601F02D1424800681DE02020010549
:1024700091FAA1F1B1FA81F108430221B1EB601F99
:1024800002D13B48006A0FE02020010591FAA1F13A
:10249000B1FA81F108430421B1EB601F02D1344845
:1024A000406801E03248406A20210A0592FAA2F20F
:1024B000B2FA82F2114301F01F020121914008405B
:1024C0000028BED051E000214FF0807090FAA0F0BB
:1024D000B0FA80F0274A42F82010FEF731FF054697
:1024E00006E0FEF72DFF401B022801D903202FE450
:1024F0002020010591FAA1F1B1FA81F108430121EF
:10250000B1EB601F02D11A4800681DE020200105D0
:1025100091FAA1F1B1FA81F108430221B1EB601FF8
:1025200002D11348006A0FE02020010591FAA1F1C1
:10253000B1FA81F108430421B1EB601F02D10C48CC
:10254000406801E00A48406A20210A0592FAA2F296
:10255000B2FA82F2114301F01F02012191400840BA
:102560000028BED101E001207FE400207DE40000CE
:10257000001002400000424270470000F8B50446D7
:10258000206846682068856805F0400048B905F075
:10259000010030B106F0400018B12046E16C8847D8
:1025A000F8BD05F0020030B106F0800018B12046F9
:1025B000216D8847F4E705F4B070002877D006F065
:1025C0002000002873D005F04000F0B194F85D00C1
:1025D00003280ED0206E40F00400206600BF0020CB
:1025E00000902068C068009020688068009000BF5C
:1025F0000BE000BF002000902068C06800902068B9
:102600008068009000BF00BFCAE705F0200088B1D5
:10261000206E40F00100206600BF0020009020687E
:10262000806800902068006820F040002168086001
:1026300000BF00BF05F4807058B1206E40F0080064
:10264000206600BF0020009020688068009000BFD6
:1026500000BF206E28B32068406820F0E0002168A9
:102660004860012084F85D0006F00200022802D0D4
:1026700006F00100B8B12068406820F0030021682E
:102680004860A06D28B10B48A16D4863A06DFEF7AE
:102690006DFC606D28B10748616D4863606DFEF7A1
:1026A00065FC03E003E02046FFF766FF78E700BF24
:1026B00076E70000D935000870B504460CB9012052
:1026C00070BD606A00B900BF0021A16294F85D008E
:1026D00028B9002084F85C00204600F053F802205E
:1026E00084F85D002068006820F0400021680860E0
:1026F000E068B0F5E06F01D9002501E04FF48055A6
:10270000E068B0F5706F05D0E068B0F5E06F01D01B
:102710000021A162206B40B9E068B0F5E06F02D9FA
:102720000221216301E001212163D4E90101084371
:102730002169084361690843218B01F40071084352
:10274000E1690843216A0843A16A084321680860D7
:102750000421A06901EA1040616A0843616B0843E3
:10276000E16808432843216848602068C06920F474
:1027700000602168C86100202066012084F85D00A7
:1027800000209DE710B586B00446142101A8FDF78E
:102790009EFD3349206888422AD100BF3148C06974
:1027A00040F480402F49C8610846C06900F4804069
:1027B000009000BF00BF00BF0846406940F4802081
:1027C00048610846406900F48020009000BF00BFC7
:1027D0004FF401400190022002900020039003205A
:1027E00004900520059001A91F48FEF7BDFC35E0C7
:1027F0001E492068884231D100BF1A48C06940F4A0
:1028000000401849C8610846C06900F400400090C3
:1028100000BF00BF00BF0846406940F40030486177
:102820000846406900F40030009000BF00BF1E2041
:1028300001900220029000200390032004900620C3
:10284000059001A94FF09040FEF78EFC0022052173
:102850003320FEF710FE3320FEF700FE06B010BD59
:10286000003800400010024000040048003C0040D6
:10287000F0B504460E4615460027A06868B96068A2
:10288000B0F5827F09D1042084F85D002B463246E2
:102890003146204600F070F9F0BD00BF94F85C00AE
:1028A000012801D10220F7E7012084F85C0000BF75
:1028B00094F85D00012801D0022743E006B10DB96C
:1028C00001273FE0042084F85D0000202066266494
:1028D000A4F84450A4F84650A063A087E087206580
:1028E000E068B0F5E06F08D92068406820F48050B7
:1028F000216848601748E06407E02068406840F4B9
:102900008050216848601448E064A068B0F5004F2A
:1029100005D12068006820F48040216808602068A4
:10292000406840F06000216848602068006800F05E
:102930004000402805D02068006840F04000216831
:10294000086000BF00BF002084F85C0000BF38466C
:10295000A2E70000DF3600080937000810B504467A
:10296000114884421FD111480078114908700F485E
:10297000407848700D48807888700C4800210180AC
:10298000817000230B4A0A490B48006803F0A6FF38
:102990000848006838B14FF0805008490860BFF31C
:1029A0004F8FBFF36F8F10BD0C0100202800002057
:1029B0002B000020300000201800002004ED00E073
:1029C0002DE9F84304460D4617461E464FF0000811
:1029D000C14600BF94F85C00012802D10220BDE886
:1029E000F883012084F85C0000BFFEF7A9FC804654
:1029F00094F85D00012802D04FF00209B2E005B161
:102A000017B94FF00109ADE0032084F85D00002004
:102A10002066A563A787E7872064A4F84400A4F88C
:102A200046002065E064A068B0F5004F05D120683D
:102A3000006840F48040216808602068006800F069
:102A40004000402805D02068006840F04000216820
:102A50000860E068B0F5E06F2AD9606810B1E08FD7
:102A6000012806D128882168C860AD1CE08F401E6F
:102A7000E08719E02068806800F00200022807D192
:102A800028882168C860AD1CE08F401EE0870BE0FD
:102A90003EB1701C40B1FEF753FCA0EB0800B04201
:102AA00002D34FF003095DE0E08F0028E2D13FE060
:102AB000606810B1E08F012811D1E08F012807D99B
:102AC00028882168C860AD1CE08F801EE08706E082
:102AD00015F8010B21680873E08F401EE08724E0A1
:102AE0002068806800F00200022812D1E08F0128DF
:102AF00007D928882168C860AD1CE08F801EE08758
:102B000013E015F8010B21680873E08F401EE08781
:102B10000BE03EB1701C40B1FEF712FCA0EB0800C8
:102B2000B04202D34FF003091CE0E08F0028D7D158
:102B300042463146204600F09BFD08B12020206629
:102B4000A06850B900BF002000902068C0680090C5
:102B500020688068009000BF00BF206E08B14FF071
:102B6000010900BF012084F85D0000BF002084F847
:102B70005C0000BF484632E7F0B504460025002659
:102B8000002700BF94F85C00012801D10220F0BDAD
:102B9000012084F85C0000BF94F85D506668012D48
:102BA00008D0B6F5827F03D1A06808B9042D01D002
:102BB000022752E009B102B10BB901274DE094F8A8
:102BC0005D00042802D0052084F85D000020206606
:102BD000A163A387E3872264A4F84430A4F84630B5
:102BE000E068B0F5E06F04D91F48E0641F48206535
:102BF00003E01F48E0641F482065E068B0F5E06F1F
:102C000003D8B4F84600022808D32068406820F4AE
:102C10008050D4F800C0CCF8040007E02068406879
:102C200040F48050D4F800C0CCF80400206840681C
:102C300040F0E000D4F800C0CCF804002068006840
:102C400000F04000402807D02068006840F04000B5
:102C5000D4F800C0CCF8000000BF00BF002084F80A
:102C60005C0000BF384692E705340008AD34000828
:102C70003F340008E334000870477047704710B5D0
:102C800004460CB9012010BD94F83D0028B900207D
:102C900084F83C00204600F00CF8022084F83D0047
:102CA000211D206800F09CFF012084F83D000020D9
:102CB000E9E7704701460868C06840F001000A680B
:102CC000D0600868006840F001000A6810600020C9
:102CD0007047704710B5044620680069C0F3400093
:102CE000D8B12068C068C0F34000B0B16FF00200F6
:102CF00021680861012020772068806900F00300C6
:102D000018B12046FFF7E5FF05E0204600F0ADF8DA
:102D1000204600F0ABF80020207720680069C0F35F
:102D20008000D8B12068C068C0F38000B0B16FF0F7
:102D3000040021680861022020772068806900F47F
:102D4000407018B12046FFF7C4FF05E0204600F0B0
:102D50008CF8204600F08AF800202077206800696F
:102D6000C0F3C000D8B12068C068C0F3C000B0B1E3
:102D70006FF0080021680861042020772068C0698E
:102D800000F0030018B12046FFF7A3FF05E020463E
:102D900000F06BF8204600F069F8002020772068EA
:102DA0000069C0F30010D8B12068C068C0F30010FB
:102DB000B0B16FF01000216808610820207720680A
:102DC000C06900F4407018B12046FFF782FF05E0AB
:102DD000204600F04AF8204600F048F8002020770E
:102DE0002068006900F0010058B12068C06800F058
:102DF000010030B16FF0010021680861204600F049
:102E000037F820680069C0F3C01058B12068C06866
:102E1000C0F3C01030B16FF0800021680861204617
:102E2000FFF72BFF20680069C0F3801058B12068BD
:102E3000C068C0F3801030B16FF0400021680861B5
:102E4000204600F021F820680069C0F3401058B116
:102E50002068C068C0F3401030B16FF020002168D6
:102E600008612046FFF70AFF10BD70477047000059
:102E700010B5044603492068884201D1FEF766FA7E
:102E800010BD0000009C00407047704710B504461C
:102E90002068006820F490702168086020688068CD
:102EA00020F00100216888602068806800F0400000
:102EB00040280DD12068806820F04000216888609B
:102EC000606E28B10020616E4863606EFEF732F8D4
:102ED0000020A4F85A000F2021680862202084F8FE
:102EE0006A00002010BD70472DE9F04104462068BB
:102EF000C5692068066805F00F08B8F1000F0AD10F
:102F000005F0200038B106F0200020B1204600F086
:102F1000BFFFBDE8F08120688768B8F1000F7DD061
:102F200007F0010018B906F49070002876D005F07B
:102F3000010048B106F4807030B1012021680862B8
:102F4000E06E40F00100E06605F0020048B107F0D5
:102F5000010030B1022021680862E06E40F00400F8
:102F6000E06605F0040048B107F0010030B104202C
:102F700021680862E06E40F00200E06605F008009B
:102F800060B106F0200010B907F0010030B1082050
:102F900021680862E06E40F00800E066E06E68B309
:102FA00005F0200028B106F0200010B1204600F006
:102FB0006FFFE06E00F0080028B92068806800F01C
:102FC0004000402824D1204600F042FF206880685D
:102FD00000F04000402817D12068806820F04000B1
:102FE00021688860606E58B12148616E4863606EE8
:102FF000FDF7BCFF10B1606E416B88470DE00DE03E
:103000002046FFF770FF08E02046FFF76CFF04E062
:103010002046FFF768FF0020E0667AE705F480109D
:1030200078B107F4800060B14FF480102168086225
:10303000202084F8690084F86A002046FFF725FF05
:1030400067E705F0800030B106F0800018B1204637
:1030500001F09AF85DE705F0400030B106F040005D
:1030600018B1204600F004FF53E700BF51E700000D
:10307000393E000810B504460CB9012010BDA06906
:1030800000B100E000BF94F8690028B9002084F87E
:103090006800204600F02AF8242084F8690020689F
:1030A000006820F0010021680860204600F036FF2B
:1030B000012800D1E2E7606A10B1204600F0F8FD77
:1030C0002068406820F4904021684860206880684B
:1030D00020F02A00216888602068006840F0010024
:1030E00021680860204600F06DFEC7E710B586B085
:1030F0000446142101A8FDF7EAF81C49206888421B
:1031000032D100BF1A48806940F480401849886174
:103110000846806900F48040009000BF00BF00BFF7
:103120000846406940F4003048610846406900F4B0
:103130000030009000BF00BF4FF4C060019002203B
:10314000029000200390032004900720059001A91D
:103150004FF09040FEF708F8002206212520FEF7E8
:103160008AF92520FEF77AF906B010BD0038014033
:103170000010024010B5034693F86A00202847D19A
:1031800001B10AB9012010BD00BF93F86800012801
:1031900001D10220F7E7012083F8680000BF5965DC
:1031A000A3F85820A3F85A2000BF9868B0F5805FB4
:1031B0000AD1186920B940F2FF10A3F85C000EE0B4
:1031C000FF20A3F85C000AE0986840B9186918B9B4
:1031D000FF20A3F85C0002E07F20A3F85C0000BFA2
:1031E0000020D866222083F86A0000BF002083F800
:1031F000680000BF1868806840F001001C68A0608B
:103200001868006840F490701C6820600020BAE7DD
:103210000220B8E77047704700BFFEE700B587B0EF
:10322000142102A8FDF753F800BF2448406940F478
:103230008000224948610846406900F480000190FE
:1032400000BF00BF00BF0846406940F4003048613D
:103250000846406900F40030019000BF00BF00BF85
:103260000846406940F4802048610846406900F4FF
:103270008020019000BF00BF002240F202211048D0
:10328000FEF758F840F2022002900120039000203F
:103290000490059002A90A48FDF766FFC02002903D
:1032A0001220039001200490032005900420069032
:1032B00002A90348FDF758FF07B000BD0010024007
:1032C0000004004810B51248124908604FF482709B
:1032D00048604FF400410F4881604FF4E061C160E5
:1032E0000021016141614FF4007181612021C161C0
:1032F00000210162416281620721C16200210163F4
:1033000008214163FFF7D8F908B1FDF784FD10BD2E
:1033100000380040A800002010B50F480F49086091
:103320000020486000210D4881604FF4E061C160D9
:10333000002101610121416100218161016241623D
:1033400081620721C162002101634163FFF7B4F983
:1033500008B1FDF760FD10BD003C00400C010020ED
:1033600010B50D480D4908604FF4964048600021A3
:103370000A488160C16001610C21416100218161C5
:10338000C16101620020054948620846FFF772FEEC
:1033900008B1FDF740FD10BD00380140700100206C
:1033A00000BFFEE7704700F01F0201219140420973
:1033B000920002F1E022C2F8001170470248006852
:1033C000C0F30220704700000CED00E010B50028AB
:1033D00007DA0A07140E054A00F00F031B1FD45426
:1033E00003E00A07130E024A135410BD18ED00E063
:1033F00000E400E010B50248FFF7C0F810BD00007F
:103400000C01002010B504462068C068216C0880BB
:10341000206C801C2064B4F84600401EA4F84600CE
:10342000B4F8460050B92068406820F04000216898
:103430004860E08F10B9204600F07BF810BD10B551
:103440000446B4F84600012816D92068C068216CEB
:103450000880206C801C2064B4F84600801EA4F80C
:103460004600B4F84600012811D12068406840F4B5
:103470008050216848600AE02068017B226C501C63
:1034800020641170B4F84600401EA4F84600B4F859
:10349000460050B92068406820F06000216848600C
:1034A000E08F10B9204600F044F810BD10B5044676
:1034B000A06B00882168C860A06B801CA063E08FAF
:1034C000401EE087E08F58B92068406820F08000F7
:1034D00021684860B4F8460010B9204600F029F889
:1034E00010BD10B50446E08F02280AD3A06B0088F7
:1034F0002168C860A06B801CA063E08F801EE087FD
:1035000008E0A16B481CA063087821680873E08F6D
:10351000401EE087E08F58B92068406820F08000A6
:1035200021684860B4F8460010B9204600F001F860
:1035300010BD70B504460025FDF702FF0546206862
:10354000406820F02000216848602A466421204617
:1035500000F08EF818B1206E40F020002066206E3A
:1035600088B994F85D00042806D1012084F85D0034
:103570002046FFF7F3F90CE0012084F85D002046B7
:10358000FFF77AFB05E0012084F85D002046FEF796
:10359000F3FF70BD70B504462068406820F06000FD
:1035A00021684860FDF7CCFE05462A466421204686
:1035B00000F01DF818B1206E40F0200020660120B8
:1035C00084F85D00206E18B92046FFF7C7F902E0C5
:1035D0002046FEF7D1FF70BD70B505466C6A00202D
:1035E000A4F84600E0872046FEF7C6FF70BDF8B598
:1035F00004460E4615466068B0F5827F0DD1A0687E
:10360000B0F5004F03D0A068B0F5806F05D12068F9
:10361000006820F0400021680860334600228021C5
:103620002046009500F0DCF828B1206E40F0200024
:1036300020660320F8BD6068B0F5827F16D1A068CF
:10364000B0F5004F03D0A068B0F5806F0ED13346BF
:1036500000224FF4C0612046009500F069F828B1BF
:10366000206E40F0200020660320E3E70020E1E721
:10367000F8B504460E461546334600224FF4C051B5
:103680002046009500F054F828B1206E40F020004C
:1036900020660320F8BD3346002280212046009595
:1036A00000F09EF828B1206E40F020002066032034
:1036B000F0E7334600224FF4C0612046009500F049
:1036C00037F828B1206E40F0200020660320E1E7A3
:1036D0000020DFE700BF012001F0A7FEFBE710B5E7
:1036E00004462068C068216C0880206C801C20641F
:1036F000B4F84600401EA4F84600B4F8460010B9DD
:103700002046FFF747FF10BD10B504462068017B37
:10371000226C501C20641170B4F84600401EA4F8BE
:103720004600B4F8460010B92046FFF733FF10BD3D
:103730002DE9F84304460E4617461D46DDF8208065
:1037400047E0B6F5C06F05D127B92068007B00902F
:103750009DF80000681CD8B32DB1FDF7F1FDA0EB7A
:103760000800A84235D32068406820F0E0002168B6
:1037700048606068B0F5827F0DD1A068B0F5004F59
:1037800003D0A068B0F5806F05D12068006820F0F4
:10379000400021680860A06AB0F5005F0DD100BF4D
:1037A0002068006820F400502168086020680068E4
:1037B00040F400502168086000BF012084F85D00DB
:1037C00000BF002084F85C0000BF0320BDE8F88340
:1037D000FFE7206880683040B842B2D10020F5E7AA
:1037E0002DE9F04104460E4617461D46DDF81880C7
:1037F0003EE0681CD8B32DB1FDF7A2FDA0EB080098
:10380000A84235D32068406820F0E0002168486075
:103810006068B0F5827F0DD1A068B0F5004F03D08D
:10382000A068B0F5806F05D12068006820F04000E6
:1038300021680860A06AB0F5005F0DD100BF206864
:10384000006820F40050216808602068006840F497
:1038500000502168086000BF012084F85D0000BFAF
:10386000002084F85C0000BF0320BDE8F081FFE782
:10387000206880683040B04201D1012000E0002083
:10388000B842B6D10020F0E72DED028B82B000BF28
:1038900000230A2201A91248006802F01DFE012837
:1038A000F6D102F099FA9DF8060000280DDD9DF88A
:1038B0000600FCF79FFE41EC180BB0EE480AF0EE54
:1038C000680A00F0D7FC044600E000249DF80520BB
:1038D00002212046FDF772FA02F0A8FAD8E70000AC
:1038E0001000002008B500BF03222A492A48FEF72D
:1038F000BFFF0023642269462848006802F0ECFDFF
:103900000128F1D19DF80000012804D0022813D02D
:1039100003282CD121E00023642269462048006856
:1039200002F008FF38B14FF080501E490860BFF325
:103930004F8FBFF36F8F23E000236422694618483E
:10394000006802F0F7FE38B14FF08050154908606A
:10395000BFF34F8FBFF36F8F12E0002364226946DD
:103960001148006802F0E6FE00B109E000BF4FF028
:1039700080500C490860BFF34F8FBFF36F8F00BFBB
:1039800000BF4FF0805007490860BFF34F8FBFF36F
:103990006F8FA9E7280000200C01002018000020EC
:1039A0001400002004ED00E0100000202DED028B3B
:1039B00084B0002400231A4619463448006802F0F7
:1039C0008BFD012269463248FFF7D4FB00BF00237C
:1039D000642201A92F48006802F07EFD0128F6D17B
:1039E0009DF80010601CC0B2044601AA115401A841
:1039F00000F0DAF918B92648FFF748FA3FE09DF8D9
:103A000004003138052838D2DFE800F003132333EF
:103A100034000DF1060000F0FBFCB0EE408AF0EE41
:103A2000608A1D4880ED008B002001900290039079
:103A300024E00DF1060000F0EBFCB0EE408AF0EE61
:103A4000608A154880ED028B00200190029003905F
:103A500014E00DF1060000F0DBFCB0EE408AF0EE61
:103A6000608A0D4880ED048B002001900290039045
:103A700004E000BF00F08CFC00E000BF00BF0122AA
:103A800069460348FFF776FBA1E70000200000200D
:103A900070010020180000208004002010B500BF35
:103AA000502080F31188BFF34F8FBFF36F8F00BF9B
:103AB00003F060F818B14FF080500449086000BF6F
:103AC000002080F3118800BF10BD000004ED00E06D
:103AD00000B59BB0282111A8FCF7F9FB14210CA814
:103AE000FCF7F5FB2C2101A8FCF7F1FB012011905C
:103AF00000041290002013900120159002201890CD
:103B0000C10319914FF4E0111A9111A8FEF732F890
:103B100008B1FDF780F90F200C9002200D900020D5
:103B20000E904FF480600F900020109002210CA89E
:103B3000FDF732FE08B1FDF76EF90120019000207B
:103B4000039001A8FDF7EAFC08B1FDF764F91BB08A
:103B500000BD00001948006840F470001749086073
:103B60001748006840F001001549086008464068A1
:103B70001449084012494860084600681249084044
:103B80000F4908600846006820F480200860084655
:103B9000406820F4FE0048600846C06A20F00F002C
:103BA000C8620846006B09490840054908630020BF
:103BB0008860C803014980390860704788ED00E0DB
:103BC000001002400CC07FF8FFFFF6FECCFC00FFA7
:103BD00010B50248FFF77EF810BD00004004002039
:103BE00010B500220268B0F1804F0BD0264B9842EE
:103BF00008D0264B984205D0254B984202D0254B41
:103C0000984203D122F070024B681A43B0F1804F02
:103C10001DD01D4B98421AD01C4B984217D01C4BFC
:103C2000984214D01C4B984211D01C4B98420ED095
:103C30001B4B98420BD01B4B984208D01A4B984212
:103C400005D01A4B984202D0124B984203D122F46D
:103C50004072CB681A4322F080034C6943EA0402A5
:103C600002608B68C3620B6883620E4B984205D07A
:103C70000D4B984202D00D4B984201D10B69036362
:103C80000123436110BD0000000400400008004013
:103C9000000C0040005C014000180040001C004087
:103CA0000020004000400140004401400048014025
:103CB00090F8241001F0010139B10168496821F43C
:103CC0000031826A11430268516090F8241001F0BB
:103CD0000201022907D10168496821F48031C26AD2
:103CE00011430268516090F8241001F00401042986
:103CF00007D10168496821F48021026B11430268F1
:103D0000516090F8241001F00801082907D10168DA
:103D1000496821F40041426B11430268516090F8F8
:103D2000241001F01001102907D10168896821F4DD
:103D30008051826B11430268916090F8241001F069
:103D40002001202907D10168896821F40051C26B44
:103D500011430268916090F8241001F0400140295D
:103D600013D10168496821F48011026C1143026883
:103D70005160016CB1F5801F07D10168496821F4D9
:103D8000C001426C11430268516090F8241001F0A8
:103D90008001802907D10168496821F40021826CE3
:103DA00011430268516070470246002105E0481C3B
:103DB000C1B2FF2901D100207047505C0A28F6D11A
:103DC0000120F9E738B5044600250020E066FDF73C
:103DD000B7FA05462068006800F0080008280CD1F2
:103DE0006FF07E402B4600224FF4001100902046D9
:103DF00000F0FFF908B1032038BD2068006800F02A
:103E0000040004280CD16FF07E402B4600224FF4B2
:103E100080010090204600F0ECF908B10320EBE7A8
:103E2000202084F8690084F86A0000BF002084F82C
:103E3000680000BF00BFDFE770B505466C6A002070
:103E4000A4F85A00A4F852002046FFF74CF870BDC1
:103E50000168096821F4907102681160016889683D
:103E600021F0010102689160202180F86A107047FA
:103E700010B504462068006820F040002168086002
:103E8000202084F869002046FFF7C5F9002010BD06
:103E90002DE9F0410446B4F85C7094F86A002228D9
:103EA00033D12068858CA068B0F5805F09D1206986
:103EB00038B9666D05EA07003080606D801C60656A
:103EC00005E0F8B22840626D511C61651070B4F8CD
:103ED0005A00401E80B2A4F85A00A0B920680068B9
:103EE00020F49070216808602068806820F001004C
:103EF00021688860202084F86A002046FFF78AF94C
:103F00000020BDE8F0810020FBE72068806940F0D8
:103F10000800216888610220F3E700002DE9F047DE
:103F20000446002510260027A846A9462169A06856
:103F3000084361690843E16940EA010520680068B7
:103F400049F20C6188432843216808602068406872
:103F500020F44050E168084321684860216AA06964
:103F600040EA01052068806820F430602843216819
:103F7000886000BF7E492068884216D17D48006B6A
:103F800000F0030030B1012808D0022808D003282F
:103F900008D101E0012607E0022605E0042603E03F
:103FA000082601E0102600BF3CE0734920688842E3
:103FB00019D17048006B00F4403048B1B0F5803F33
:103FC0000AD0B0F5003F09D0B0F5403F08D101E07C
:103FD000002607E0022605E0042603E0082601E0AB
:103FE000102600BF1EE065492068884219D161484B
:103FF000006B00F4402048B1B0F5802F0AD0B0F536
:10400000002F09D0B0F5402F08D101E0002607E0CD
:10401000022605E0042603E0082601E0102600BF82
:1040200000E0102600BFE069B0F5004F52D1042E29
:104030002BD005DC4EB1012E12D0022E3BD11AE05E
:10404000082E2DD0102E36D136E0FDF721FD400090
:10405000616800EB5100B0FBF1F01FFA80F82EE030
:10406000FDF72CFD4000616800EB5100B0FBF1F062
:104070001FFA80F823E04249606801EB5000616854
:10408000B0FBF1F01FFA80F819E0FDF72DFD4000BC
:10409000616800EB5100B0FBF1F01FFA80F80EE010
:1040A0004FF48031606801EB50006168B0FBF1F0C3
:1040B0001FFA80F803E000BF4FF0010900BF00BF06
:1040C0004FF6F07008EA0007C8F342000743206883
:1040D000C7604AE0042E2CD005DC4EB1012E12D070
:1040E000022E3DD11AE0082E2ED0102E38D138E005
:1040F000FDF7CEFC616800EB5100B0FBF1F080B23F
:104100002168C86030E0FDF7D9FC616800EB510020
:10411000B0FBF1F080B22168C86025E01949606801
:1041200001EB50006168B0FBF1F080B22168C8601B
:104130001AE0FDF7D9FC616800EB5100B0FBF1F02B
:1041400080B22168C8600FE04FF40041606801EB65
:1041500050006168B0FBF1F080B22168C86003E0F4
:1041600000BF4FF0010900BF00BF4846BDE8F0871F
:104170000038014000100240004400400048004068
:104180000024F40000127A00014691F86900212809
:104190002DD1B1F8520068B90868006820F080009D
:1041A0000B6818600868006840F040000B681860F1
:1041B000002070478868B0F5805F0BD1086948B966
:1041C000CA6C1088C0F308000B681885C86C801C86
:1041D000C86405E0CB6C581CC86418780B68188557
:1041E000B1F85200401EA1F852000020E1E7022081
:1041F000DFE72DE9F04104460D4617469846069E36
:1042000021E0701CF8B12EB1FDF79AF8A0EB080080
:10421000B04218D92068006820F4D0702168086086
:104220002068806820F0010021688860202084F8E0
:10423000690084F86A0000BF002084F8680000BFAD
:104240000320BDE8F0812068C0692840A84201D160
:10425000012000E00020B842D3D00020F1E70000A8
:1042600010B50248FEF740FE10BD000070010020AE
:1042700000BFFEE710B52DED088BB0EE408AF0EEE2
:10428000608A9FED360BB0EE409AF0EE609A9FED9B
:10429000330BB0EE40AAF0EE60AA9FED320B33482C
:1042A00080ED000B9FED320B80ED020B9FED320B8A
:1042B00080ED040B9FED320B53EC102B51EC180BDF
:1042C000FCF729F941EC180B284890ED020BB0EEF1
:1042D000401AF0EE601AB0EE480AF0EE680A00F0FC
:1042E000B3F8B0EE409AF0EE609A51EC190BFCF77F
:1042F0008EF904461D4890ED001BB0EE410AF0EE29
:10430000610A53EC192B51EC100BFCF792F841ECBD
:104310001B0B164890ED041BB0EE410AF0EE610A4B
:1043200053EC102B51EC1B0BFBF7DCFF41EC1A0B91
:1043300051EC1A0BFCF76BF904469FED130B53EC91
:10434000102B51EC1A0BFCF774F841EC1B0BFCF72B
:104350005EF90446E0B2BDEC088B10BD0000000021
:10436000000000003333333333C363408004002044
:10437000E542E55FCB2B773F9A999999998963C07C
:104380000000000000000040000000000000444069
:10439000F8B5002000900E4F0E4D0F484560FCF719
:1043A000CBFE69460C48FCF70DFE00240AE057F8E6
:1043B000246005EB8401324600230220FCF764FEF2
:1043C000601CC4B2082CF2D3FCF754FEF8BD000008
:1043D0008004002000F80308E001002003B40198E5
:1043E0004100009850EAC12018BF04204A0D18BFB0
:1043F00040F0010040F2FF72B2EB515F08BF40F0A5
:104400000200012808BF052002B07047000000002C
:1044100030B583B0044600F00FFF9FED090B054651
:104420008DED000B002221466846FCF746F9284630
:1044300000F018FF9DED000B03B030BD0000000040
:1044400000000000000000002DE9F04D2DED040BF0
:104450002DED0E8B96B0DDE92550279CDDF890A060
:1044600025F0004624F00048BAF1000F14BF0121E6
:10447000002101EB4502FC4953184A1093422AD30C
:10448000002814BF0123002303EB44030B44F74926
:104490008B4220D358EA00019FEDF59B76D0DFF8E0
:1044A000D8B35D4503D1BAF1000F05D188E0BAF168
:1044B000000F08BF002100D0012101EB450111F5DB
:1044C000001F08D8002814BF0121002101EB44017E
:1044D00011F5001F0BD99DED261B9DED240B16B089
:1044E000BDEC0E8B04B0BDE8F04D00F069BE0027B6
:1044F000002DBCBFE149884521DAE1498845A8BFC4
:1045000002271CDAC3451ADCDE4901EB28511429C5
:1045100008DDC1F1340220FA02F101FA02F282420E
:104520000DD108E058B9C1F1140228FA02F101FADC
:1045300002F2424503D101F00101C1F1020756EA3E
:104540000A0124D1002C22DA002D18BF022F01D03D
:10455000012F0AD0022000F085FE16B0BDEC0E8BB4
:1045600004B0BDE8F04D00F013BE022000F07AFE6A
:1045700000F00EFE51EC100B81F0004141EC100BED
:1045800016B0BDEC0E8B04B0BDE8F08D18E09FEDC9
:10459000BEAB9FEDBF8B002871D1B848804522D1BA
:1045A00005F1804010F5801008BFBAF1000F07D068
:1045B000B3450ADC002CA8BF9DED260BE0DA0DE028
:1045C000B0EE490AF0EE690ADAE7002C06DA9DED52
:1045D000260B51EC100B81F000416FE0AE4878449F
:1045E00090ED000BCCE7D8454DD1002C48DA2EB128
:1045F00086423AD1BAF1000F42D126E0BAF1000F5B
:1046000013D0022000F02EFE00F0F6FD8DED020B1F
:104610009DED240B8DED000B10EE900A039961F3D4
:104620001E0003909DED020BAAE78DED02AB9DED00
:10463000240B1AEE901A10EE900A8DED000B61F328
:104640001E0003909DED020B9AE78DED028B9DED10
:10465000240B18EE901A10EE900A8DED000B61F30A
:104660001E0003909DED020B8AE709DA9DED240BF5
:1046700051EC190B53EC102BFBF74DFF1EE020E023
:104680009DED240B7CE786421BDAB4F1804F0DD000
:10469000A4F10050B0F1FF5013D1002D11DB9DEDBE
:1046A000240B51EC100B01F009FB07E09DED240BEE
:1046B00053EC102B51EC100B00F0C2BC41EC100B72
:1046C0005EE79DED240B51EC100B00F0D8FDBAF124
:1046D000000FCDE90E0142D19FED710B46B3A6F15B
:1046E000E040B0F17F600CD05E4538D1002D00DA9B
:1046F000A7B3022F0CBF01204FF0FF30FCF784F866
:10470000DCE7002D01DD002C0DDA002D01DD002C91
:104710001FDB002D16DA002C14DB012F08BF9FEDE4
:10472000620B3FF42DAFB0EE4A0AF0EE6A0A27E7BB
:10473000022F18BF002D0CD0012F0AD1002DFFF63B
:104740001FAF06E0002DB8BF002C08DA012F3FF4A0
:1047500017AFB0EE480AF0EE680A11E71BE001203F
:1047600000EBE57050EA070115D0791EB0EE498ADA
:10477000F0EE698A084308BF9FED4D8B4E48002537
:10478000804570DD4D494E48884514DDB0420DDB53
:10479000002C19DB2FE0012000F064FD16B0BDEC09
:1047A0000E8B04B0BDE8F04D00F016BDB34502DC41
:1047B000002C09DC1FE0864202DA002C1BDA03E041
:1047C0005E452BDD002C16DD022000F04BFD00F0D5
:1047D00013FD8DED020B53EC1A2B51EC180BFBF76C
:1047E00028FECDE900010399019861F31E000390B2
:1047F0009DED020BC4E6022000F034FD00F00CFD3C
:1048000010EE901A18EE900A8DED020B8DED008BD4
:1048100061F31E0003909DED020BB1E69DED0E0BC2
:1048200053EC192B51EC100BFBF7FDFD9FED260B04
:10483000CDE9080153EC102B9DED080B51EC100B4A
:10484000FBF7F7FD9FED221B53EC112BFBF7EEFD61
:104850009DED081B53EC112BFBF7EBFD9FED1E1B91
:1048600053EC112B3CE08CE0FFFF1F00FFFF0F001B
:10487000000000000000F03F0000F03F0000F07F6B
:104880000000404301FCFFFF000000000000F07F3B
:104890000000000000000000AE2A00000000000040
:1048A0000000000000000080000000000000F0FF99
:1048B000000000000000F0BF0000E0410000F043F5
:1048C000FFFFEF3F00000000000000000000D03FAD
:1048D000555555555555D53F000000000000E03FA7
:1048E000FBF7A4FD9DED080B41EC1A0B53EC102BCC
:1048F00051EC100BFBF79DFD53EC1A2BFBF799FDC8
:1049000041EC1A0B9FEDFE0B53EC102B9DED080BA9
:1049100051EC100BFBF78DFD41EC1B0B9FEDFA0BDF
:1049200051EC1A0B53EC102BFBF783FD41EC1A0BE7
:104930009FEDF70B53EC102B9DED080B51EC100B7A
:10494000FBF777FD53EC1A2BFBF76DFD41EC1A0BCF
:1049500051EC1B0B53EC1A2BFBF7C4FC0690CDE972
:1049600006519DED060B53EC1B2B51EC100BFBF786
:104970005AFD53EC1A2BFBF759FD41EC100B00F0DC
:10498000A1B90020B6F5801F0EDA9FEDE30B53ECC2
:10499000102B9DED0E0B51EC100BFBF74AFDCDE9F2
:1049A0000E016FF034000E4600EB2650A0F2FF37E8
:1049B000C6F31300DA4940F07F6646F0405688425D
:1049C000D8BF002408DDD7498142C8BF012403DCD9
:1049D0000024A6F580167F1CD348784400EBC40061
:1049E0000F9690ED00CB9DED0E0B53EC1C2B51EC74
:1049F000100BFBF718FD9DED0E0B41EC1B0B53EC60
:104A00001C2B51EC100BFBF76DFC41EC100B51EC27
:104A1000190B53EC102BFBF77EFD41EC1D0B51ECF9
:104A20001B0B53EC1D2BFBF704FD41EC1A0BBF488D
:104A30008DED10AB7844109590ED000B4FF00050C9
:104A400040EA660000EB84408DED080B00F5002085
:104A500009909DED080B53EC1C2B51EC100BFBF750
:104A6000E2FC9DED0E1B53EC112BFBF7DFFC41EC40
:104A7000100B53EC102B9DED100B51EC100BFBF7B2
:104A8000D8FC9DED080B41EC1C0B53EC102B9DED5D
:104A9000100B51EC100BFBF7CCFC53EC1B2BFBF772
:104AA000C5FC53EC1C2BFBF7BEFC53EC1D2BFBF79A
:104AB000C0FC41EC1C0B53EC1A2B51EC1A0BFBF70E
:104AC000B8FC41EC1B0B9A480621B0EE4B0AF0EE05
:104AD0006B0A784400F0E0FAB0EE401AF0EE601A8B
:104AE000B0EE41DAF0EE61DA53EC1B2B51EC1B0B0C
:104AF000FBF79FFC53EC1D2BFBF79BFC9DED100B74
:104B000041EC1B0B53EC1A2B51EC100BFBF7EAFB9F
:104B100053EC1C2BFBF78DFC53EC1B2BFBF7E2FB40
:104B20009DED100B41EC1B0B53EC102B51EC100BBB
:104B3000FBF77FFC41EC1D0B9FED7FEB53EC1E2B35
:104B4000FBF7D0FB53EC1B2BFBF7CCFB0890CDE91C
:104B500008519DED080B53EC1E2B51EC100BFBF78D
:104B600062FC53EC1D2BFBF75EFC53EC1B2BFBF79D
:104B70005DFC9DED080B41EC1D0B53EC102B9DEDE6
:104B8000100B51EC100BFBF754FC41EC1B0B53ECDE
:104B90001A2B51EC1D0BFBF74CFC9DED080B41EC67
:104BA0001A0B53EC102B51EC1C0BFBF742FC53EC93
:104BB0001A2BFBF797FB41EC1A0B51EC1B0B53EC38
:104BC0001A2BFBF78FFB0C90CDE90C519DED0C0BD4
:104BD00053EC1B2B51EC100BFBF725FC53EC1A2B61
:104BE000FBF724FC41EC1B0B9FED550B53EC102BFA
:104BF0009DED0C0B51EC100BFBF71BFC41EC1A0B61
:104C00009FED510B51EC1B0B53EC102BFBF711FCE0
:104C100041EC1B0B9FED4E0B53EC102B9DED0C0B41
:104C200051EC100BFBF705FC53EC1B2BFBF75AFB6D
:104C300041EC100B4848784400EBC40090ED001B99
:104C400051EC100B53EC112BFBF74CFB41EC1B0B05
:104C50003846FBF7D9FDCDE9080153EC1B2B51EC8D
:104C60001A0BFBF73FFB41EC100B3C48784400EB80
:104C7000C40090ED00CB51EC100B53EC1C2BFBF758
:104C800031FB9DED081B53EC112BFBF72BFB069022
:104C9000CDE906519DED080B53EC102B9DED060B55
:104CA00051EC100BFBF7BFFB53EC1C2BFBF7BBFBD2
:104CB00053EC1A2BFBF7B7FB53EC1B2BFBF7B6FBA4
:104CC00041EC100B9DED261B53EC102B8DED001BC2
:104CD00000959DED260B51EC100BFBF7AAFB9DED0B
:104CE000000B41EC1A0B53EC102B9DED260B51ECF5
:104CF000100BFBF798FB9DED061B53EC112B2FE0DF
:104D0000000000604715F73FFE822B654715F73F0F
:104D100044DF5DF80BAE543E00000000000040434D
:104D20008E9803007AB60B002A2600005826000051
:104D300062250000000000000000000000000840A4
:104D4000000000E009C7EE3FFD033ADC09C7EE3F73
:104D5000F5015B14E02F3EBEEE230000A823000007
:104D6000FBF767FB53EC1A2BFBF7BCFA9DED060B28
:104D700041EC1A0B53EC102B9DED000B51EC100B7A
:104D8000FBF757FBCDE90C019DED0C0B51EC1A0B19
:104D900053EC102BFBF7A6FACDE902010C46AA4909
:104DA0008C422FDB611A084318D19DED0C0B53EC9C
:104DB000102B9DED020B51EC100BFBF734FB41EC7B
:104DC0001B0B9FEDA30B51EC1A0B53EC102BFBF7B5
:104DD00089FA53EC1B2BFBF729FD2DD2022000F0A2
:104DE00041FA00F009FA10EE901A18EE900A8DEDD3
:104DF000020B8DED008B61F31E0003909DED020B05
:104E0000FFF7BEBB944A24F00041914214D393496A
:104E1000214408437FF4EFAC9DED0C0B53EC102BB9
:104E20009DED020B51EC100BFBF7FDFA53EC1A2B26
:104E3000FBF7FCFC7FF6DFAC24F000408849894A90
:104E4000002601EB205182422BDA481C4FF48011DE
:104E500021FA00F02044844AC0F30A517A44A1F2B6
:104E6000FF3192ED000B814A8DED080BCA4020EA1C
:104E70000202C0F3130040F48010C1F1140120FAC3
:104E800001F60992002CB8BF76429DED080B53EC59
:104E9000102B9DED0C0B51EC100BFBF7C4FACDE978
:104EA0000C019DED0C0B51EC1A0B53EC102BFBF786
:104EB00019FA9FED6F0B0890CDE9085153EC102BB8
:104EC0009DED080B51EC100BFBF7B3FA41EC1B0BFB
:104ED0009FED690B53EC102B9DED080B51EC100B63
:104EE000FBF7A7FA9DED0C0B41EC1C0B53EC102BC0
:104EF0009DED080B51EC100BFBF795FA53EC1A2BB8
:104F0000FBF794FA9FED5E1B53EC112BFBF791FA24
:104F100053EC1C2BFBF7E6F941EC1A0B51EC1B0B85
:104F200053EC1A2BFBF7DEF9CDE902019DED020BE4
:104F300053EC1B2B51EC100BFBF775FA53EC1A2BAF
:104F4000FBF774FA9DED020B41EC1A0B53EC102B9E
:104F500051EC100BFBF76DFACDE908014A489DEDC5
:104F6000080B0521784400F097F89DED081B51ECE3
:104F7000100B53EC112BFBF75CFA9DED021B53EC6D
:104F8000112BFBF753FACDE906019DED020B53EC13
:104F90001A2B51EC100BFBF74CFA53EC1A2BFBF7C6
:104FA000A1F99FED3B0B41EC1A0B53EC102B9DED3F
:104FB000060B51EC100BFBF736FA9DED060B41EC9E
:104FC0001B0B53EC102B9DED020B51EC100BFBF760
:104FD00030FA53EC1B2BFBF79EFA53EC1A2BFBF722
:104FE00022FA9DED021B53EC112BFBF71CFA53EC3C
:104FF000192BFBF71BFACDE9020101EB0650011555
:105000000029C8BF039015DC9DED020B324651EC20
:10501000100BFBF7E2FBFFF7E1F9042808BF00F0F3
:10502000FBF832469DED020B51EC100BFBF7D5FB64
:10503000CDE902019DED020B51EC180B53EC102B46
:10504000FBF7F7F9FFF73ABB0000904000000000C3
:10505000FE822B654715973C00CC904000346F3F93
:1050600001FCFFFF0000E03F30220000FFFF0F00C7
:1050700000000000432EE63F396CA80C615C20BEA6
:10508000EF39FAFE422EE63F00210000000000004A
:10509000000000000000004070B504462DED028BBA
:1050A0004D1E00EBC500B0EE408AF0EE608A90ED38
:1050B000000B35F0060017D053EC182B51EC100BF9
:1050C000FBF7B7F941EC100B6D1E04EBC50090ED3A
:1050D000001B51EC100B53EC112BFBF703F941ECC7
:1050E000100B35F00600E7D1022D36D0042D1CD070
:1050F000062D1CBFBDEC028B70BD53EC182B51EC80
:10510000100BFBF796F994ED0A1B53EC112BFBF7F0
:10511000E9F853EC182BFBF78CF994ED081B53ECD2
:10512000112BFBF7DFF841EC100B53EC182B51EC73
:10513000100BFBF77EF994ED061B53EC112BFBF7DC
:10514000D1F853EC182BFBF774F994ED040B53ECE6
:10515000102BFBF7C7F841EC100B53EC182B51EC5C
:10516000100BFBF766F994ED021B53EC112BFBF7C8
:10517000B9F853EC182BFBF75CF994ED001B53ECDA
:10518000112BFBF7AFF8BDEC028B41EC100B70BD9F
:105190009FED070B10B553EC102B9FED070B51EC57
:1051A000100BFBF7B8F941EC100B10BD000000002C
:1051B0000000000000000000000000000000F03FC0
:1051C00010B553EC112B51EC100BFBF78BF841ECA5
:1051D000100B10BD000000009FED050B10B553EC47
:1051E000102B51EC100BFBF796F941EC100B10BD96
:1051F00000000000000000009FED050B10B553EC0F
:10520000102B51EC100BFBF714F941EC100B10BDF7
:1052100000000000000000709FED050B10B553EC7E
:10522000102B51EC100BFBF704F941EC100B10BDE7
:1052300000000000000000100148006870470000F6
:10524000A400002002E008C8121F08C1002AFAD1F9
:1052500070477047002001E001C1121F002AFBD1F6
:10526000704700000149086070470000A40000205A
:1052700030380A2801D2012070470020704782B0E0
:10528000CDE9000121F0004001909DED000B02B03E
:1052900051EC100B70470000B0B0FCF763F8FEF75C
:1052A00017FCFDF7BBFFFEF737F8FEF759F8FEF7DE
:1052B00009F800202E902F9001212EA800F0DAF896
:1052C0004949086000202C902D9001212CA800F065
:1052D000D1F8464908604649D1E90023D1E90201E5
:1052E000CDE92823CDE92A01002128A800F0AEF855
:1052F000404908603E4B1033D3E90020D3E9021344
:10530000CDE92613CDE92420002124A800F09EF841
:1053100039490860364B2033D3E901021968DB684C
:10532000CDE92223CDE92010002120A800F08EF83D
:10533000324908602E4B3033D3E90020D3E9021301
:10534000CDE91E13CDE91C2000211CA800F07EF839
:105350002B4908601C222649403115A8FAF79EFF08
:10536000002115A800F0ABF8264908601C2220494E
:105370005C310EA8FAF792FF00210EA800F09FF80A
:10538000214908601C221A49783107A8FAF786FFDC
:10539000002107A800F093F81C4908601C2214495A
:1053A00094316846FAF77AFF0021684600F087F8E2
:1053B000174908603320FDF7F6FF0022052133204E
:1053C000FCF759F82520FDF7EEFF002206212520E5
:1053D000FCF751F803220F490F48FDF749FA00F096
:1053E00030F800BFFEE700001C0000202000002075
:1053F000206F00081000002014000020180000207A
:1054000024000020000000200400002008000020EC
:105410000C000020280000200C0100200146002084
:10542000842901D0CA1C1044704770B50446254633
:105430000DB1294600E00121084600F0ABFD002037
:1054400070BD10B500F066FE002010BDF8B5044632
:105450000D46A06840B1E06830B10020009094E8AB
:105460000F0000F0CAFFF8BD0022D4E9000100F0EF
:1054700095FFF8E7F8B504460D46606860B1012D68
:1054800008D103200090002211460120636800F03B
:10549000B4FFF8BD0020FCE7012D0ED1032200214E
:1054A000012000F07BFF06462EB100231A46194664
:1054B000304601F03FF93046EBE70020E9E77FB5E1
:1054C00004460D46606998B1A06988B1B4F9080036
:1054D000FFF7A4FF0646D4E90510CDE9006102906C
:1054E0002B462269D4E9001001F0ECFA039013E096
:1054F000B4F90800FFF792FF064603A8CDE9006063
:10550000238A9AB22B46D4E9001001F0A9FA0128A7
:1055100002D0002004B070BD0398FBE72DE9F041F4
:1055200005460E461C4807681C480068001D00F030
:10553000FCFB50B91948006890F82C1001208840F5
:1055400017490968814316480160681C38B936B1AB
:1055500012480168091D134800F032FC1AE07C195A
:105560000E4800684460BC4207D20C480168091D1F
:105570000D48006800F00AFC0CE008480168091DAD
:105580000A48006800F002FC09480068844201D221
:1055900007480460BDE8F081580000204400002066
:1055A0005C0000209C0500204C00002048000020EA
:1055B0007400002010B5044600F00EFC234800687B
:1055C000401C224908602248006840B92048046015
:1055D0000846006801280DD100F0AEF90AE01D4828
:1055E000006838B91A480068C06AE16A884201D880
:1055F0001748046018480068401C1749086094F870
:105600002C10012088401549096808431349086097
:10561000E16A01EB8101124A02EB8100211D00F0D9
:10562000CFFB00F003FC0B48006868B10848006835
:10563000C06AE16A884207D24FF080500949086089
:10564000BFF34F8FBFF36F8F10BD000054000020D9
:105650004400002060000020700000205C0000205A
:10566000C004002004ED00E070B523E000F0AAFDC6
:105670001348006808B9012000E00020054601F049
:10568000CDFBBDB900F0A8FB0D48C068C468201D63
:1056900000F04BFB0B480068401E0A4908600A48AE
:1056A0000068401E0849086000F0C0FB204600F07A
:1056B00060F800BF044800680028D7D170BD000022
:1056C00088050020540000205000002070B50446DA
:1056D0000D46206C70B1216CE0680844E0606168A0
:1056E000E068884201D32068E0602846226CE168C7
:1056F000FAF7D4FD70BD2DE9F04104460F4615467A
:105700004FF00008A66B206C40B9206860BB606851
:1057100001F0D4FA80460020606025E07DB939466A
:10572000226CA068FAF7BAFD216CA0680844A0605A
:10573000D4E90110884217D32068A06014E03946EC
:10574000226CE068FAF7AAFD216CE068401AE0607C
:105750002168E068884203D2216C6068401AE060EA
:10576000022D01D106B1761E701CA0634046BDE833
:10577000F08110B5044694F8510030B9206B00F068
:1057800073FB204600F070FB1AE094F851000128EA
:1057900003D1204600F068FB12E094F85100022883
:1057A00001D1012000E0002050B900BF502080F35B
:1057B0001188BFF34F8FBFF36F8F00BF00BFFEE7AD
:1057C00010BD000030B54FF4FA53174800F007043D
:1057D0002CB1C01D20F00700134C041B1B1B0246FC
:1057E000124C22600024114D6C60D018083820F053
:1057F00007000F4C206000240D4D2D686C600C4D8F
:105800002D682C601146441A4C60094C24680C60C9
:10581000084D4C682C60084D4C682C604FF00044DB
:10582000064D2C6030BD0000B00500208000002037
:1058300088000020900000208C00002094000020B0
:1058400000BFFFF711FF064800680128F9D94FF0A3
:10585000805004490860BFF34F8FBFF36F8FF0E7AC
:10586000C004002004ED00E02DE9F04106460D469D
:1058700017469846069C0DB9246000E02760E66351
:1058800025640121204600F009FFBDE8F0812DE9E3
:10589000FF5F81460F469246DDE90E6B109CAAF130
:1058A0000100216B01EB800828F0070808F00700D1
:1058B00008B9012000E0002050B900BF502080F35B
:1058C0001188BFF34F8FBFF36F8F00BF00BFFEE79C
:1058D000002507E0795D04F134004155785D00B999
:1058E00002E06D1C102DF5D300BF002143200155AF
:1058F000072E00D30626E66266640020A064201D01
:1059000000F041FA04F1180000F03DFA2461C6F1FC
:105910000700A06164620020E06484F850004946FA
:105920004046039A00F0B4F92060BBF1000F01D0AB
:10593000CBF80040BDE8FF9F10B5002407E004EB62
:1059400084010F4A02EB810000F010FA641C072C5E
:10595000F5D30C4800F00AFA0B4800F007FA0B48A0
:1059600000F004FA0A4800F001FA0A4800F0FEF9D3
:1059700004480949086004480849086010BD00004F
:10598000C00400204C0500206005002074050020A4
:10599000880500209C050020480000204C000020C5
:1059A00010B50146164800E0006803688B42FBD33F
:1059B0000246436813448B4204D143684C68234435
:1059C000436001460A464B6813440468A34211D160
:1059D0000C4C03682468A34208D04B6804686468D0
:1059E00023444B6003681B680B6005E0054B1B6894
:1059F0000B6001E003680B60884200D0016010BDBD
:105A0000800000208800002070B5054600F0E4F911
:105A1000A86B08B9012400E0002400F007FA204632
:105A200070BD70B5054600F0D7F9A86BE96B8842E8
:105A300001D1012400E0002400F0F8F9204670BDF7
:105A40000A490968096809B9012100E0002121B16A
:105A50004FF0FF31064A116006E004490968C96841
:105A6000C868034A41681160704700004800002080
:105A7000740000200E480068401C08B9012000E0B6
:105A8000002050B900BF502080F31188BFF34F8F22
:105A9000BFF36F8F00BF00BFFEE700BF502080F351
:105AA0001188BFF34F8FBFF36F8F00BF00BFFEE7BA
:105AB0009800002070B5044600F08EF994F9455026
:105AC00010E0606A08B9012000E0002038B904F154
:105AD000240001F057F918B100F08AFA00E003E061
